S0170000496E7465726E616C5F454550524F4D2E73726563A9
S11300000C942A000C943C000C943C000C943C008E
S11300100C943C000C943C000C943C000C943C006C
S11300200C943C000C943C000C943C000C943C005C
S11300300C943C000C943C000C943C000C943C004C
S11300400C943C000C943C000C943C000C943C003C
S11300500C943C0011241FBECFE5D4E0DEBFCDBF1D
S113006020E0A0E6B0E001C01D92A236B207E1F79D
S11300700E9474000C94A6000C940000811522E0E8
S1130080920760F4E199FECF91709FBB8EBB6DBB6C
S11300908CB384608CBB8CB382608CBB0895811557
S11300A022E0920750F4E199FECF91709FBB8EBB82
S11300B08CB381608CBB8DB3089580E008951F9349
S11300C0CF93DF93811522E0920750F4162FEC01B1
S11300D00E944F00811721F0612FCE010E943E0043
S11300E0DF91CF911F91089565E581E090E00E9432
S11300F03E0068EC81E090E00E945F006AEA81E0E3
S113010090E00E94990081E090E00E944F0080936B
S1130110600069E581E090E00E943E006BEB81E0C5
S113012090E00E945F006AEE81E090E00E949900F6
S1130130FFCF262FE199FECF9FBB8EBB2DBB0FB601
S1130140F894E29AE19A0FBE01960895F894FFCFCD
S9030000FC
